:1000000014C02CC02BC02AC029C028C027C059C08A
:1000100025C024C023C022C021C020C01FC01EC0D4
:100020001DC01CC027C11AC019C011241FBECFEDAE
:10003000CDBF10E0A0E6B0E0E2EDF2E002C0059036
:100040000D92A236B107D9F720E0A2E6B0E001C0D8
:100050001D92A736B207E1F702D039C1D1CFF8948B
:10006000889890988E98969AC098B89AC198B99A9C
:1000700083E089B912B81BB88EE083B980E98AB9E8
:1000800080E781BD84B7877F84BF1092650010929E
:10009000660080E090E0FAD0909361008093600069
:1000A000789480916400882349F0809166008823C9
:1000B00014F4C19A01C0C198C09AF3CFC198C098F6
:1000C000F0CF1F920F920FB60F9211242F933F93F0
:1000D0004F935F936F937F938F939F93AF93BF9350
:1000E000EF93FF93CF93DF931F92CDB7DD278BB1B3
:1000F00089839CB18981282F207184FF08C01092C8
:1001000063001092620081E0809365009FC080913F
:100110006500823099F0833009F445C0813009F0E0
:1001200095C0911101C022E0209365008091650087
:10013000823009F08BC0869989C085C02091620009
:10014000309163002F5F3F4F309363002093620034
:1001500040916200509163002091600030916100F5
:100160004217530768F0E0916200F091630020911C
:10017000600030916100E21BF30BEA59FF4F90835E
:100180002091620030916300809160009091610045
:100190002817390708F45AC081E080936400109250
:1001A0006500A89553C020916200309163002F5FD5
:1001B0003F4F30936300209362009923CCF5609108
:1001C00062007091630080E090E063D080916200F3
:1001D000909163009093610080936000A895C1980E
:1001E0002FEF83EC99E0215080409040E1F700C070
:1001F0000000C19A2FEF83EC99E02150804090409D
:10020000E1F700C00000C1982FEF83EC99E0215086
:1002100080409040E1F700C00000C19A2FEF83ECCE
:1002200099E0215080409040E1F700C00000C19863
:1002300080916200909163008115924010F01092BD
:100240006500A89503C083E0809365000F90DF915F
:10025000CF91FF91EF91BF91AF919F918F917F913E
:100260006F915F914F913F912F910F900FBE0F9023
:100270001F9018951F920F920FB60F921124109293
:1002800064000F900FBE0F901F901895A8E142E0F8
:1002900005C010D0272F0FC0A82F862FE82FE19977
:1002A000FECF05C0EEBBE09AE3950DB20D92415032
:1002B000C8F70895262FE199FECF1CBA8EBB2DBB3F
:1002C0000FB6F894E29AE19A0FBE01960895F89459
:0202D000FFCF5E
:0202D200010029
:00000001FF
